:400000000040002011000000110600001106000080B500AF00F02EFB80B500AF364B12221A6000F0E7FE354B181C01F011F8012000F0F0FE302000F083FD314B314A1A605E
:40004000314B8022D2051A60304B304A126802210A431A602E4B2F4A1A602F4B00221A602E4B2E4A126808218A431A60FA23DB00181C00F0B1FD2A4B181C00F05FFE294B27
:40008000294A1A60294B2A4A1A602A4BA02212011A60264B284A1A60284BE82252011A60224B274A1A60274B882292011A601F4B254A1A60254B822212061A60244B8022FB
:4000C000D2021A60234B43221A60234B40221A60224B41221A60224B42221A60214B0820191C00F0C3FD082000F0E6FD064B8022D2051A60BD4680BD30001040001BB7003C
:4001000004010B40060000800C020B4078002E407C002E402D3E000064F02E406CF02E40DC0500000C03014000DB05000000014043FF00800003014040FF0080040301406A
:4001400041FF00800803014042FF008008010B4000010B401C010140180101400801014004010140650F000080B582B000AF72B63A4B00221A60FB1D00221A7023E0FB1D18
:400180001A78131C5B009B185B00354A9B183B603B681A78597809020A43997809040A43DB781B061343191C3B681A795B791B0213439BB2081C191C00F0E0FAFB1D1A78E9
:4001C000FB1D01321A70FB1D1B78012BD7D9254B254A1A60254B992212041A60244B992212041A60234B992212041A60224A224B1B78DBB202210B43DBB213701F4A1F4BCF
:400200001B78DBB23C218B43DBB214210B43DBB21370194A184B1B78DBB216210B43DBB21370174B2F221A60164B174A1A60174B20221A60164B1F221A60164B164A1A60FA
:40024000164B80221A60164B80221A60FFF7E4FE00F0A4FABD4602B080BDC0466CF02E400031000000000240EE0099EE00500F4010500F4030500F4000700F4001700F40D8
:400280000000044008000440A414DB0018000440000104400801044092480000000304401803044010B5064C2378002B07D1054B002B02D0044800E000BF0123237010BD3C
:4002C0005001002000000000CC30000008B5084B002B03D00748084900E000BF07480368002B00D108BD064B002BFBD09847F9E700000000CC30000054010020C80000206A
:400300000000000090B587B000AF786039600823FB181B4A03CA03C31188198092789A7000237B6107E07B693A68D31820221A707B6901337B617B69082BF4DD17E07B69CB
:400340003A68D4187B68181C0A2101F007F80B1C1A1C0823FB189B5C23707B68181C0A2100F016FF031C7B607B69013B7B617B68002B02DD7B69002BE1DCBD4607B090BD9B
:40038000D030000090B591B000AFB860F9607A601C23FB183F4A03CA03C31188198092789A700023FB6307E0FB6B7A68D31820221A70FB6B0133FB63FB6B082BF4DDBB681D
:4003C000FC681022BA18181C211C02F0E7F9031C0C1CBB62FC62B86AF96A00222E4B01F015FE031C0C1CBB62FC62B86AF96A02F0A7F8031CBB633B697C69181C211C02F06B
:400400009FF8031C7B6317E0FB6B7A68D418BB6B181C0A2100F0A2FF0B1C1A1C1C23FB189B5C2370BB6B181C0A2100F0B1FE031CBB63FB6B013BFB63FB6B042BE4DCFB6B92
:400440007A68D3182E221A70FB6B013BFB6317E0FB6B7A68D4187B6B181C0A2100F07EFF0B1C1A1C1C23FB189B5C23707B6B181C0A2100F08DFE031C7B63FB6B013BFB6302
:400480007B6B002B02DDFB6B012BE1DCBD4611B090BDC046D0300000006AF840F0B58FB000AF00F0D3FA00F0D3F9002002F0C6F9031C181C02F008F900F002FB031C7B6238
:4004C00000F00AFB031C3B620A2000F0DDF94D4B181C00F069FA00F0D9FA031C7B630A2000F0D2F900233B630023FB617BE002F019F9031C181C444900F030FF0B1CBB61B6
:400500007B6BFB6100F0C2FA031C7B637A6BFB699A4221DD7A6BFB69D31A181C02F046F8031C0C1C181C211C1A1C231C00F022FF031C0C1C1D1C261C786A02F037F8031CF1
:400540000C1C281C311C1A1C231C01F03BFA031C0C1CBB62FC6222E07A6AFB69D21A7B6BD318181C02F022F8031C0C1C181C211C1A1C231C00F0FEFE031C0C1C1D1C261C43
:40058000786A02F013F8031C0C1C281C311C1A1C231C01F017FA031C0C1CBB62FC62BB6AFC6A0C22BA18181C211CFFF7EBFE0C23FB18181C00F0F8F90A2000F065F9BA697E
:4005C0003B1C101C191CFFF79DFE3B1C181C00F0EBF97C2000F058F9BB69181C00F08AFB3B6B01333B633B6B084A934200DC7EE7C0467E2000F048F90023181CBD460FB035
:40060000F0BDC046DC30000088130000E703000080B500AF02F024F8031C1B680C2B00D1FEE7FEE780B584B000AF78600F4B1A687B68D3181A1C0E4BD31A802B09DC0B4B14
:400640001B68FB60094B1A687B68D218074B1A6007E002F005F8031C0C221A6001235B42FB60FB68181CBD4604B080BDCC000020A801002080B586B000AF224B7B61224B64
:400680003B61204B7B6135E03B691B68FB603B695B68BB603B699B683B6000237B600CE0FB681A68BB681A60BB680433BB60FB680433FB607B6804337B607A683B689A42D0
:4006C000EED13B69DB683B6000237B6008E0BB6800221A60BB680433BB607B6804337B607A683B689A42F2D13B6910333B617B69013B7B617B69002BC6D101F0B7FFFFF7C4
:40070000CDFEFEE701000000E431000080B582B000AF154B144A126801218A431A6000237B600FE07B68032B04D8104B7A689200D35800E00E4B0F4A796889008B507B68AE
:4007400001337B607B682F2BECD9FFF70DFD0A4B00221A60044B044A126801210A431A60BD4602B080BDC04600001040000000001106000000000020C000002080B582B0B1
:4007800000AF786039607A683B68101C00211A1C01F092FFBD4602B080BDC04680B500AF0A4B03221A600A4B03221A60094B802212061A60084B80221A60084B00221A60E5
:4007C000012000F00DF8BD4680BDC046300030403000314000003A4000033A40000E3F4080B584B000AF021CFB1D1A700B4B1B68FB60FB1D1B78002B05D0FB688022120604
:400800001343FB6003E0FB685B005B08FB60034BFA681A60BD4604B080BDC04680033A4080B500AF00F046F8BD4680BD80B500AF064B064A1268802109060A431A6000F0CF
:4008400019F800F01BF8BD4680BDC0460000244080B500AF064B1B78002B04D1FFF7E0FF034B01221A70FFF7E1FFBD4680BDC0466C01002080B500AFBD4680BD80B500AF71
:4008800000F078F8BD4680BD80B582B000AF7860C046064B1B681F221340082BF9D0044B7A681A60BD4602B080BDC046080224404002244080B500AF1B4B1C4A1A601C4BF8
:4008C00000221A601B4B01221A601B4B1B4A1A601B4B07221A601B4B00221A601A4B01221A601A4B154A1A60194B00221A60194B04221A60184B00221A60184B00221A60C7
:40090000174B00221A60174B00221A60164B00221A60164B00221A60144B1B689AB2144B1A80BD4680BDC046000024400B00000240002440480024400003244007000080A5
:40094000040324401003244044002440000224400402244050002440880E2440C80E2440480F2440080F2440C80F2440880F24406E01002080B500AF074B074A12680749E9
:400980000A40902109040A431A60054B054A12881A60BD4680BDC04600000240FFFF0FFF880F24406E01002080B584B000AF78600023FB6009E07A68FB68D3181B78181C49
:4009C000FFF762FFFB680133FB607A68FB68D3181B78002BEFD1BD4604B080BD80B500AF094B802292041A60084B0C221A60012000F09AF8064B181C00F054F8002000F0B3
:400A000037F8BD4680BDC0460001204024012040FFFF000090B583B000AFFC1D00F021FB031C2370084B084A126801210A431A60FB1D1B78181C00F018FB0120182100F02B
:400A400057F8BD4603B090BD0000204080B500AF064B1B78002B04D1FFF7C0FF034B01221A70FFF7D7FFBD4680BDC0467001002080B582B000AF7860034B7A681204120C57
:400A80001A60BD4602B080BD0801204080B500AF034B1B681B041B0C181CBD4680BDC0460801204080B582B000AF7860034B7A681204120C1A60BD4602B080BD1401204050
:400AC00080B500AF034B1B681B041B0C181CBD4680BDC0461401204080B500AF034B1B681B041B0C181CBD4680BDC0460C01204090B585B000AF786039600F23FC1800F05A
:400B0000B0FA031C2370074B3A68796891400A1C1A600F23FB181B78181C00F0A6FABD4605B090BD0800204080B582B000AF7860024B7A681A60BD4602B080BD38012040E8
:400B400090B58BB000AF78602723FC1800F089FA031C2370184B1A680C23FB181A60174B1A680C23FB185A607B68033B144AD35C1A1C0C23FB189A60124B1A680C23FB1829
:400B8000DA601C23FB18104A1A600C23FA181C23FB185A600D4B1C22BA181A600C4B0D4A1A600A4B1B682723FB181B78181C00F05CFABD460BB090BD08010B4000010B4091
:400BC0000C31000030001040B6EA000008001040040010401700008080B584B000AF78600023FB60154B154A126801210A431A60134B144A1A60144B134A126880210902AD
:400C00000A431A607B68002B12D01023FB600CE0012000F093F800F019F8031E02D00023FB6005E07B68013B7B607B68002BEFD1FB68181CBD4604B080BDC04660F02E4079
:400C400078002E400220000010002E4080B582B000AF054B1B68012213407B607B68181CBD4602B080BDC0460C002E4080B584B000AF021C3960FB1D1A7080239B05FB601C
:400C8000FB1D1B781F2B02D9002000F029F8FB1D1B7810339B00FA68D3181B68BB60FB1D1B7810339B00FA68D3183A681A60BB68181CBD4604B080BD80B582B000AF021C4E
:400CC000FB1D1A70054BFA1D12781F210A40012191400A1C1A60BD4602B080BD00E100E080B582B000AF021CFB1D1A7001BEBD4602B080BD80B582B000AF786009E00C4BDC
:400D00001B68181C00F0A4F97B680A4A944663447B607A6880231B029A42F0D8064B1B687A685343181C00F093F9BD4602B080BDDC0000200080FFFFD400002080B582B0D3
:400D400000AF021CBB1D1A80BB1D1B88044A12785343181C00F07CF9BD4602B080BDC046D800002080B500AF0E4B0E4A126801218A431A600B4B0B4A126802218A431A60BB
:400D8000094B094A126830218A4310210A431A60054B054A126807218A4301210A431A60BD4680BD00F02E4000FF2E4080B500AF0E4B0E4A126802218A431A600C4B0C4AD4
:400DC000126807218A4302210A431A60084B084A126830218A4320210A431A60034B034A126801210A431A60BD4680BD00F02E4000FF2E4080B500AFFFF7B4FF044B044A22
:400E00001268802109060A431A60BD4680BDC04600F02E4080B584B000AF78600C4B1B6801221340FB607B68002B02D0012B03D005E0FFF797FF06E0FFF7B8FF03E000209C
:400E4000FFF74EFFC046FB68181CBD4604B080BD00F02E4090B583B000AFFC1D00F001F9031C2370074B074A1268C02109020A431A60FB1D1B78181C00F0F7F8BD4603B020
:400E800090BDC04600010B4080B500AF054B1A68C0231B02134001D0012300E00023181CBD4680BD00010B4090B583B000AFFC1D00F0D7F8031C23700C4B0C4A12680C49A5
:400EC0000A408021C9010A431A60084B074A126807490A40802109020A431A60FB1D1B78181C00F0C2F8BD4603B090BD00010B40FF3FFFFF90B585B000AF78600B23FC18F4
:400F000000F0AFF8031C2370FFF7BEFF031E04D00123FB60FFF7C8FF01E00023FB607B680D4A13407B600D4B0C4A12680C4911407A680A431A60094B1B68FB68012B01D10E
:400F4000FFF788FF0B23FB181B78181C00F08DF8BD4605B090BDC0460404040010020B40FBFBFBFF80B500AF334B1B68042213401FD0324B1B680422134017D0304B1B6868
:400F800004221340DA432D4B1B681A402B4B1A602B4B1B68042293431A1C294B1A60294B1B68002B02D0274B1B6898470420FFF7A1FF214B1A688023DB00134022D01F4BA0
:400FC0001A688023DB00134017D01D4B1A688023DB001340DA43194B1B681A40174B1A60174B1B68184A1A40154B1A60154B5B68002B02D0134B5B6898478023DB00181C75
:40100000FFF778FF0C4B1A688023DB02134011D00A4B1A688023DB02134006D0094B9B68002B02D0074B9B6898478023DB02181CFFF760FFBD4680BD10020B40E800002000
:401040007C01002080010020FFFBFFFF000000000230800803D00138FDD1C046C046C0467047EFF3108072B6704780F310887047002243088B4274D303098B425FD3030A31
:401080008B4244D3030B8B4228D3030C8B420DD3FF22090212BA030C8B4202D31212090265D0030B8B4219D300E0090AC30B8B4201D3CB03C01A5241830B8B4201D38B038C
:4010C000C01A5241430B8B4201D34B03C01A5241030B8B4201D30B03C01A5241C30A8B4201D3CB02C01A5241830A8B4201D38B02C01A5241430A8B4201D34B02C01A524137
:40110000030A8B4201D30B02C01A5241CDD2C3098B4201D3CB01C01A524183098B4201D38B01C01A524143098B4201D34B01C01A524103098B4201D30B01C01A5241C30885
:401140008B4201D3CB00C01A524183088B4201D38B00C01A524143088B4201D34B00C01A5241411A00D20146524110467047FFE701B5002000F0FCF802BDC0460029F7D065
:4011800003B5FFF775FF0EBC4243891A1847C04603460B437FD4002243088B4274D303098B425FD3030A8B4244D3030B8B4228D3030C8B420DD3FF22090212BA030C8B42E9
:4011C00002D31212090265D0030B8B4219D300E0090AC30B8B4201D3CB03C01A5241830B8B4201D38B03C01A5241430B8B4201D34B03C01A5241030B8B4201D30B03C01AE7
:401200005241C30A8B4201D3CB02C01A5241830A8B4201D38B02C01A5241430A8B4201D34B02C01A5241030A8B4201D30B02C01A5241CDD2C3098B4201D3CB01C01A524136
:4012400083098B4201D38B01C01A524143098B4201D34B01C01A524103098B4201D30B01C01A5241C3088B4201D3CB00C01A524183088B4201D38B00C01A524143088B429C
:4012800001D34B00C01A5241411A00D201465241104670475DE0CA0F00D04942031000D34042534000229C4603098B422DD3030A8B4212D3FC22890112BA030A8B420CD359
:4012C000890192118B4208D3890192118B4204D389013AD0921100E08909C3098B4201D3CB01C01A524183098B4201D38B01C01A524143098B4201D34B01C01A5241030921
:401300008B4201D30B01C01A5241C3088B4201D3CB00C01A524183088B4201D38B00C01A5241D9D243088B4201D34B00C01A5241411A00D20146634652415B10104601D337
:401340004042002B00D54942704763465B1000D3404201B5002000F00BF802BD0029F8D003B5FFF715FF0EBC4243891A1847C0467047C046F0B5454657464E4694464C006A
:401380000A03C90FE0B488460E1C1903470FC500480A6146490F01436046520A1743C0005A00640D520DDB0F8446984500D1A7E0A01A002800DC01E1002A3DD163460B43F2
:4013C00000D0D4E06B0700D188E00F232B40042B00D183E02A1DAA42AD4180236D427F191B043B404646151C002B00D17CE0CC4B01349C4200D1FDE03A1CCA4BED081A4072
:401400005007640552020543120B640D002112030B0D1B056405120B1A436308C24CF60714401C43640064083443281C211C1CBC90469946A246F0BDB94B9C42C2D0802347
:401440001B041943382800DDECE01F2800DD21E120220E1C6346121A9640C340334366469640321C561EB24113430A1CC240EB1A9D42B6411D1CBA1A7642971B3B0200D41A
:4014800097E07A02560A002E00D1B6E0301C01F0C9F8031C083B1F2B00DDB7E09E40371C28262A1C361AF240161C9D403E439C4200DDB2E01C1B621C1F2A00DDD8E01F232D
:4014C000291C1C1B331CA540A340D1406C1EA541D64019430D43371C002473E780231B043B40464600D082E78D4BED0878070543FA089C4232D012036405120B640D85E755
:40150000A31A002B00DC94E0002A3CD0844A944200D157E7802212041143382B00DC05E163461943481E81410022C8B24019A8429B41051CD2195B42D7183B0239D5784BCB
:4015400001349C4200D14CE10120764A6B083A4028401843D5070543570833E72B1C134348D080231B031A431203120B4EE70138002878D16346EE1AB5429B417A1A5B4293
:40158000D71A351C7AE7021C0A4300D11AE7013B002B00D0F2E04019A8429B41CA195B42D718051CC9E7131C334300D118E1171C351C46466B0700D007E795E700287AD145
:4015C000621C5205520D012A00DCFBE06246AA1A9542B6419146781A7242861A320200D493E06246551BAC458041CF1B40423E1A984648E70022002508E7281C01F012F853
:401600002030031C083B1F2B00DC47E7283885402E1C00259C4200DC4CE7424AE41A1640371CCFE6634619434B1E99410022CBB21DE7002B00D0F2E0601C43055B0D012B2B
:4016400000DCA4E0364B984200D121E163465C19AC429B41CF195B42FA186408D50725435708041CAEE62E4B9C4200D0EAE6A9E6211C331C1F39CB40191C202A00D182E073
:401680003F231C1BA64035436E1EB54100270D4300248EE7031C0E1C203BDE40202874D040231B1A99400B1C62461343591E8B4100223343DBE6002C50D0194CA24200D1BB
:4016C000A8E08024240440422743382800DDD9E01F2800DD39E120243E1C241AA640B0462E1CA146C640444626434C46A5406C1EA541C74035436046451BCF1BAC45894183
:4017000049427F1A141C9846B8E64B464D46334300D0B8E60026002700240025E4E6C046FF070000FFFF7FFFFFFF0F801F2B5BDC2022081CD21A9040814660469246D8405C
:401740004A4610438146524660469040021C501E8241484610430A1CDA40E7E63C1C2C4358D0C043002851D16046451BAC458041CF1B40423F1A141C98467FE68F4A944299
:4017800000D0CAE61EE600267DE700238CE73B1C2B43002C00D0BDE0002B00D1F5E063460B4300D10EE663465B19AB428041CA19404217183A0200D4FCE0814A1D1C1740F4
:4017C0000134FFE53A1C2A43002C51D1002A00D085E062460A4303D00F1C65469846F1E50026002700257FE6181C0A1C2038C240202B00D1A7E04020C01A8140081C634618
:401800001843411E8841104300228FE66B4CA24200D05AE70F1C6546141C9846D2E5002C3AD1381C284371D0DB43002B18D0634882426BD0382B00DD9DE01F2B00DDA7E077
:4018400020203C1CC01A8440A1462C1C8246DC404846044350468540681E8541DF402543654465459B417F185B42FF18141C64E6002A19D162460A4377D00F1C6546984624
:401880004E4C9FE53D436F1EBD410027EDB232E7041C0027002527E64848824236D0802000045B420743C5E762460A4349D08024ED087807FA0824032843224209D0CE0849
:4018C000264206D162464F07381CD20810439846321CD200470F1743C500384C72E562460A4300D16EE56246AE1AB5429241781A5242821A100200D455E66246551BAC459D
:401900008041CA1B4042171A98465BE50F1C6546141C57E5002B34D063460B4311D08024ED087807FA08240328432242D1D0CB082342CED162464F07381CD20810431A1CAA
:40194000C7E71E4C3EE5002059E7041C3E1C203CE640341C20282BD04026301A87403D436F1EBD4100272543C5E680270026FF03124C0025B8E53D436F1EBD410027EDB2C1
:401980006EE70F1C65460D4C1CE50F1C654619E51C1C381C203CE040041C202B0CD04020C31A9F403D436F1EBD410027254357E70027D4E71D1CFCE50027F3E7FF07000088
:4019C000FFFF7FFFF0B55F4656464D464446F0B40F0387B098464D003B0BCC0F061C924681469B466D0D01946BD0664B9D4235D080275B467F031F43F3009946624BFF0004
:401A0000400F9C4607430023BB46002665440093424617035000D20F53463F0B400D904600D172E0574A904267D080235B031F435346554A5B0FFF001F4394465346002105
:401A4000DB0060444246624092462D1A0E430F2E00D9A1E04D48B600805987465B461E4300D076E000239B469946023308260093CEE799464346BB4601930091009B022BB9
:401A80006BD1019B9A46002153460122002789461A403C4B00213F030C0D24053F0B27433B4C1B0527401F437F00D2077F0817434846391C07B03CBC90469946A246AB4698
:401AC000F0BD03433ED05B46002B00D19CE1584600F0A8FD2823311C1B1A021C5F46D940083A97400B1C96403B439B46B1460023284D00262D1A00938AE7524603213A4341
:401B0000A0D10027002302219CE752463A4315D0002F00D185E1381C00F084FD021C28215046891A131CC8405146083B99409F400B1C074317480021801A83E70027002377
:401B400001217FE700239B4699460133042600935EE703230C2600935AE7032B00D13CE2012B00D0BFE11A1C019B1A4000210023002789468EE700238027994600223F03F7
:401B8000004B87E7FF07000001FCFFFF3C310000FFFF0F800DFCFFFFBB4500D951E100D14CE14A46039200225C469046013D180E3F0238431B020193030C994603041B0CB5
:401BC0004946061C201C1F1C0093FFF751FA021C7A4302904946201C171CFFF7CFFA039B09041B0C19438F420CD9029B8919013B8E4200D952E18F4200D84FE1029B89196C
:401C0000023B0293CC1B201C4946FFF731FA009F834647434946201CFFF7B0FA039A0B041404240C23439F420DD95A469B19013A9E4200D930E19F4200D82DE102225242A9
:401C400094469B19E344029ADB1B17045A463A439346019C170C220C101C04925A4611042204120C141C090C7C4305924A43414347436118100C09188C4203D980204002EB
:401C8000844667440C0C12040804120C3C198118A34200D2E5E000D1DFE01F1B43465C1AA04592415242BF1AB74200D10EE1381C4946FFF7DDF9009B029043434946381C01
:401CC0009846FFF75BFA230C0F041F43B8450CD9029BBF19013BBE4200D9FBE0B84500D8F8E0029BBF19023B02934346FF1A4946381CFFF7BDF9009B039043434946381C14
:401D00009846FFF73BFA24040904240C214388450CD9039B8919013B8E4200D9DCE0884500D8D9E0039B8919023B03934346C91A029B039A1B04059C1A43100C1304914600
:401D4000221C049F1B0C5A4344437B437843E318170CDB199C4203D980246402A44660441C0C12041B04120C00199B18814200D296E000D1FCE04A4601231A4391469B4B8D
:401D8000EB18002B00DC99E04A4652070AD00F2249460A40042A05D00431494592418946524293445A46D20106D55A46904B1A4080239346DB00EB188E4A934200DD62E6B1
:401DC0004A465946D208490711435A4689465702514601225B053F0B5B0D0A405AE680205A460003024208D0074206D107433F0399463F0B4246804B4CE65F4607433F032E
:401E00003F0B221C7C4B45E600F00CFC031C2030272800DC5EE6083B9E400023B346994665E6504600F0FEFB021C2032272A00DC75E657460838874000237BE6994500D29C
:401E4000AFE65A46594654084A46C8075208024303924A46D2079046A9E60027884500D31CE7019F5A46BC46E044B845BF417F42BF19FF18013ABE4206D2BC425FD800D1DB
:401E80009FE03F1B934609E7B742FAD1019B4345F3D9371B934601E79346D4E60293B1E64A468919013A8E4218D99146814200D061E7019A9A4200D05DE760E74F4F7F1B10
:401EC000382F13DD012253461A404FE601235B42994654E7029308E7039327E788423CD874D0914647E7019B9A4648E71F2F44DC434B4A469C465B466544FA40AB40134338
:401F00004A46AA40151C6A1E95415A46FA402B43171C5A0709D00F221A40042A05D01A1D9A429B415B42FF18131C3A023ED55346012200211A40002701238946AAE502232F
:401F40005B429C46019AE3449446E04490459B415B429B19DF193F1BA0E6019F4A467C00BC42BF417F42BF19023AC91901949CE7002B95D1002201929BE75A46214B5B1B85
:401F8000DA40202F27D0204B9C465B466544AB4049460B43591E8B411343072200271A4007D00F2200271A40042AB8D17A077F023F0BDB0813439946012253461A40002342
:401FC00068E54145BBD89346002767E6019C9C42C3D391466DE70023DAE780275B463F031F433F033F0B019A034B53E5FF030000FFFFFFFEFE070000FF07000002FCFFFF71
:402000001E040000E2FBFFFF3E040000F0B55F4656464D464446F0B4051C061C080387B099464F00030BCC0F92469B467F0D019467D06C4B9F4236D080205B464003184390
:40204000C0006B0F1843684B83469C4600239846EE00674400934B4649461D03C90F5B0052462D0B5B0D894600D16EE05D498B4264D080205C4940038C4600210543ED0050
:40208000500F0543D20063444846FF187B1C9A46009B604002900B430F2B00D9ACE053489B00C3589F465B461D4300D082E00823009300239B46023300269846CBE7029B77
:4020C00001934346022B59D1012400250026019B1C40444B00212D030A0D12052D0B1543434A1B0515401D436D00E4076D082543301C291C07B03CBC90469946A246AB4601
:40210000F0BD2B434ED05B46002B00D185E1584600F088FA021C2823291C9B1A161C5846D940083EB0400B1CB54003439B462E1C0023304F0093BF1A98468CE751462943E2
:402140002ED10025002202219EE75146294323D0002D00D154E1281C00F064FA031C28215046C91A1A1CC8405146083A914095400A1C05431F480021C31A85E7032B00D1DA
:40218000C2E1012B00D06DE14446019B00251C40E4B2002300269DE700250022012173E7032171E70423009300239B4601330026984650E70C230093093B98464BE7802501
:4021C00000242D030026074B84E74B46AB46161C0193884675E7029BAB46161C019388466FE7C046FF07000001FCFFFF7C310000FFFF0F800DFCFFFF330C3604360C9C46D9
:40220000331C140C1204120C53439846634653439946634663430193331C41466343090C4B445B18994505D9802040028146019949440191190C039141460904090C1B0454
:402240005B1804932B0C9846331C2D04290C4B43604600934346654658435E43009B4D431B0C9946AE194E448446B54203D980235B029946CC44350C2B1C039863448446A9
:402280000593009B36041B041B0CF3189C446046039058460504060C280C84465043351C81466046654344434846000C8346724314195C44A24203D98022520293465D44FB
:4022C000220CAD184A461204120C24044046A41862464A437143464360460096464670438046100C84468844E044414505D9802149028C4600996144009101980399844644
:40230000614499429B415B4299460598434684461204120C1B049B1863449C46AB4683429B4140460A19CC44A2428941E344CC45B6415C46000C8046494276425B4264184E
:40234000334398448C428941AB459B4149425B4219430D1C009B4544EE187602E50D2E43B346049B56021E43731E9E415B46D20D324366021643DB010AD5012333407608AE
:402380001E435B46DB071E435B465B089B465746634BFB18002B5ADD720709D00F223240042A05D0321DB242B6417642B344161C5A46D20106D55A465A4B1A4080239346B7
:4023C000DB00FB18584A934234DD0124029B00251C400026554B7DE680205B460003034208D0054206D105432D032D0B4C46161C4E4B6FE65D4605432D032D0B4B4B69E6E2
:40240000504600F00FF9031C2033272B00DCA6E65546083885400022ACE6281C00F002F9021C2032272A00DC75E6083885400026AB467DE65A46F608520716435A460124D3
:402440005502029A5B052D0B5B0D144042E6384DED1B382D0ADD0124029B00251C400026002337E6019B5746029391E71F2D25DC304B321C9C466744BE405B46BB40371C95
:40248000EA407E1EB74113433B431E1C5B46EB401D1C730709D00F233340042B05D0331DB342B6417642AD191E1C2B0220D50124029B00251C40002601230BE65A461E4BB2
:4024C000DB1BDA40131C202D1CD01C4A94465A466744BA40171C3E43721E96411E4307230025334007D00F2300253340042BD6D16B076D022D0B0124F6081E43029B1C4094
:402500000023E7E50027E6E780255B4601242D031D43019B2D0323401C1C2D0B034BD9E5FF030000FFFFFFFEFE070000FF07000002FCFFFF1E040000E2FBFFFF3E040000CF
:402540000B0330B5134C1A0B4B00051C5B0DC90F0020A34210DD104883420EDC80200F4C40030243E41A1F2C0ADD0D48C31ADA40131C48424340581830BD0A4BC818FBE790
:40258000281CE040084CA44663449A40131C0343EFE7C046FE0300001D0400003304000013040000FFFFFF7FEDFBFFFF38B5041E16D0C50F00D04442201C00F033F8174BFD
:4025C0001B1A0A2821DC021C211C153291400A1C0B21081AC4405B052403240B5B0D03E000250023002400220021101C24030A0D1205240B14430A4A1B0514401C4364004A
:40260000ED0764082C43211C38BD0B3884405B052403240B5B0D0022E6E7C0461E040000FFFF0F801C2101231B04984201D3000C10391B0A984201D3000A08391B09984231
:4026400001D30009043902A2105C40187047C04604030202010101010000000000000000014B18687047C0464C0100200E4B70B500251E1C0D4CE41AA410A54204D0AB00C8
:40268000F35898470135F8E700F09AFD084B00251E1C084CE41AA410A54204D0AB00F35898470135F8E770BDCC310000CC310000CC310000D4310000031C8218934202D06E
:4026C00019700133FAE7704738B5104B051C1C68A36B002B15D1182000F0D8F80C4BA06303800C4B012243800B4B83800B4BC3800B4B0381052343810633838100230261EC
:4027000043610022A36B1D615A6138BD4C0100200E330000CDABFFFF341200006DE6FFFFECDEFFFF154B10B51C68A36B002B15D1182000F0ABF8124BA0630380114B01221F
:402740004380114B8380114BC380114B03810523438106338381002302614361A46B0D4A206961690C4B00F005F90122002380185941206161614800400810BD4C010020E2
:402780000E330000CDABFFFF341200006DE6FFFFECDEFFFF2D7F954C2DF45158F8B54B00234C5B0D1C19132C1ADC002C05DA0024CB0FDD071460556038E01E4B23411E1C3E
:4027C0000E40064307D10D1C041CC90F14605560CB07321C0DE00E1C9E430024351C1FE0332C09DD0D1C041C146055600022C90FCB07101C191C19E00F4C1B19012464425D
:40280000DC40271C074007D10D1C041CC90F14605560CB073A1CECE7061CA6430D1C341C146055602B1C221C00F0CEF8F8BDC04601FCFFFFFFFF0F00EDFBFFFF13B5094B28
:40284000041C69461868002200F00EF8002805DB002C01D0009B2360009801E00120404216BDC0464C01002038B50023064C051C081C111C236000F021FC431C03D123684A
:40288000002B00D02B6038BDA401002008B5034B011C186800F004F808BDC0464C010020032370B5CC1C9C430834051C0C2C01D20C2405E0002C03DA0C2300202B6042E078
:4028C0008C42F9D3204A1368101C191C002913D00A68121B0DD40B2A02D90A608B181FE08B4202D15A6802601BE04A685A600B1C17E00B1C4968E9E7144E3368002B03D163
:40290000281C00F025F83060281C211C00F020F8031C421CD0D00322C61C964386420AD11C60181C07210B301A1D8843821A0AD05142995007E0311A281C00F009F8431CC0
:40294000BAD0331CECE770BDA00100209C01002038B50023064C051C081C2360FDF762FE431C03D12368002B00D02B6038BDC046A4010020F0B54F46464605042D0C2C1C2E
:40298000C0B41704160C3F0C9946030C7C4375435F4373437D19260CAD199C46AF4203D980235B029846C4444B465143434324042E0C240C2D0466442C1959188919201C8F
:4029C0000CBC90469946F0BDF0B54D4644465F465646F0B40E1C111C3203520A470F1743C5001A035800DB0F9946520A4B0F83B01A43CB000193CF4B7400F60F640DB046CC
:402A0000400D984200D1E8E00123494659400B1C9E4200D1B1E0261A002E00DC1CE1002842D1131C01990B4300D0E6E06B0700D18EE00F232B40042B00D189E02A1DAA4208
:402A4000AD418023012641466D427F191B043B400E40151C002B00D183E0B64B01349C4200D116E13A1CB44BED081A405007640552020543120B640D002112030B0D1B0580
:402A80006405120B1A436308AC4CF60714401C43640064083443281C211C03B03CBC90469946A246AB46F0BDA24B9C42BED080231B041A43382E00DD03E11F2E00DD3FE189
:402AC0002020831B9946131C49468B409C46019B6046F34003430198F2408840011C481E81410B43EB1A9D4280411D1CBA1A4042171A3B0200D4A8E07A02560A002E00D1F4
:402B0000CAE0301CFFF78EFD031C083B1F2B00DDCBE02822291C121AD1409E400A1C9D4032439C4200DDC8E01C1B671C1F2F00DDEDE01F23291C1C1B131CA540A340F940C5
:402B40006C1EA541FA4019430D43171C00246DE78023012642461B043B401640002B00D07BE7744BED0878070543FA089C423BD012036405120B640D7EE7231A9A46002B96
:402B800000DCA5E0002844D06A48844200D14DE78020000402435346382B00DC1CE1019B1A43511E8A41D1B200224919A94280410D1CD219404217183B0246D55D4B01345D
:402BC0009C4200D169E101205B4A6B083A4028401843D5070543570828E7131C01990B4300D111E74B4613E72B1C134351D080231B031A431203120B3EE7013E002E00D0F9
:402C000080E0691A8D429B41BA1A5B42D71A0D1C6FE7101C019B184300D107E701235B429C46E2445346002B00D002E1019BD2195919A9429B415B42D7180D1CBCE7634642
:402C4000034300D128E1071C65466B0700D0F0E6012643461E4084E7002E00D081E0601C4005400D012800DC07E10199681A84466545B641B81A7642861B300200D4A1E042
:402C80008C464D1BAC458941D21B4942561A984634E700220025EFE6281CFFF7C3FC2030031C083B1F2B00DC33E7021C283A95402A1C00259C4200DC36E71F4FE41A1740DD
:402CC000B4E6019B1A43511E8A41D3B2002209E7002B00D001E1601C43055B0D012B00DCB0E0144B984200D11EE1019BD2195919A9429B415B42D2184908D5070D435708A3
:402D0000041C93E60B4B9C4200D0D3E68EE6211C131C1F39CB40191C202F00D18EE03F231C1BA24015436A1E954100270D4300248BE7C046FF070000FFFF7FFFFFFF0F80E4
:402D4000331C101C203BD840202E79D040239B1B9A40131C019A1343591E8B4100220343C0E6002C53D0C74CA04200D1B0E0802471428946240427434946382900DDCDE093
:402D80001F2900DD59E120243E1C611A8E408A46B04649462E1CCE405146B4468D4064464646494626436C1EA541CF4035430199D71B8C464D1BAC4592415242BF1A041C86
:402DC000984696E663466546334300D096E60026002700240025C4E61F2B61DC2020C31A9B46131C59468B4051469946019BCB409C464B46604603439C465B460199994093
:402E00006346481E814119435346DA40CDE63C1C2C435DD0F1438946002955D10199D21B8C464D1BAC4589414942571A041C98465FE69448844200D0ADE6F7E5002271E7A3
:402E4000002387E73B1C2B43002C00D0DAE0002B00D113E1131C01990B4300D1E6E54919A9429B41D2195B42D7183B0200D421E1854B0D1C1F40041CD8E5381C2843002CD0
:402E800040D1002800D083E0101C0199084303D0171C0D1C9846C9E500260027002560E65046131C2038C340181C5346202B00D1C1E0402351465B1A9A40019911434A1ED9
:402EC00091410022014370E66E4CA04200D053E7171C019D041C9846A8E5002C28D13C1C2C4300D18AE0DB439A46002B00D082E0019BD2199C4665449D428941494257180B
:402F0000041C59E600285BD1101C0199084300D1A4E0171C0D1C98465A4C87E53D436F1EBD410027EDB242E7041C0027002518E6544CA04262D0534680245B429A46240432
:402F400027435346382B00DD8EE01F2B00DD9DE02024E31A9B463B1C59468B40514699462B1CCB409C464B46644623439C465B469D4063466C1EA541CF401D43019BBF1873
:402F80009C4665449D4292415242BF18041C13E6101C0199084300D148E5681A844685428041BE1A4042301A060200D447E68C464D1BAC458941D21B4942571A984635E5EA
:402FC000101C0199084334D080247807ED08FF0824032843274208D0D608264205D1C90852070A43101C371C9846FF00420F1743C500244C1AE5234CA042A2D1171C019D67
:40300000041C13E5002B35D0131C01990B4310D080247807ED08FF08240328432742E4D0D3082342E1D1C90852070A43101C1F1CDBE7144CFAE400223FE74C463E1C203C23
:40304000E6404946341C202932D04026761AB7403D436F1EBD4100272543A8E680270026FF03084C00257CE53D436F1EBD410027EDB283E7171C019D024CD7E4171C019D5C
:40308000D4E4C046FF070000FFFF7FFF54463B1C203CE3401C1C5346202B0DD0402351465B1A9F403D436F1EBD410027254365E70027CDE70D1CC8E50027F3E758220120E6
:4030C000014B40421A607047A40100200000000030313233343536373839000044656C6179206D7320207C2043616C63756C61746564207365636F6E642076616C75650069
:4031000000300F40000400400F400004030405060708090A0B0C0E0F101112131415161718191B1C1D1E1F2021222325262728292A2B2E2F3031323334350000981B0000D6
:40314000861A00006C1B0000721A00006C1B0000761B00006C1B0000721A0000861A0000861A0000761B0000721A00007C1A00007C1A00007C1A0000DE1D0000F82100003E
:40318000D6210000D6210000CA210000BE200000BE200000BE210000CA210000BE200000BE210000BE200000CA210000C2200000C2200000C2200000D82300004300000046
:4031C000F8B5C046F8BC08BC9E467047CD0200000D070000F8B5C046F8BC08BC9E467047A5020000F8310000C800002088000000580000000000000000000000A8010020FF
:40320000006CDC0280BB0000300000000000C05D01000000F0000000040404000000000000000000000000000000000000000000000000000000000000000000BC310000D2
:40324000000000000000000000000000000000000000000000000000000000000000000000000000000000000000000000000000000000000000000000000000EC00002042
:40328000000000000000000000000000000000000000000000000000000000000000000000000000000000000000000000000000000000000000000000000000000000000E
:4032C00000000000000000000000000000000000000000000000000000000000000000000000000000000000000000000000000000000000000000000000000000000000CE
:40330000000000000000000000000000000000000000000000000000000000000000000000000000000000000000000000000000000000000000000000000000000000008D
:40334000000000000000000000000000000000000000000000000000000000000000000000000000000000000000000000000000000000000000000000000000000000004D
:020000040001F9
:0200000490303A
:0200000062801C
:0200000490402A
:4000000000000000000000000000000000000000000000000000000000000000000000000000000000000000000000000000000000000000000000000000000000000000C0
:400040000000000000000000000000000000000000000000000000000000000000000000000000000000000000000000000000000000000000000000000000000000000080
:0200000490501A
:0C00000000020E34119E00010E44741E1C
:0200000490600A
:0100000001FE
:00000001FF